:100000000C942A000C943F000C943F000C943F0089
:100010000C943F000C943F000C943F000C943F0064
:100020000C943F000C943F000C943F000C943F0054
:100030000C943F000C943F000C943F000C943F0044
:100040000C94D4000C943F000C943F000C943F009F
:100050000C943F0011241FBECFE5D8E0DEBFCDBF1A
:1000600010E0A0E6B0E0ECE1F2E002C005900D92F5
:10007000AA36B107D9F70E94CA000C940C010C945F
:100080000000329A3D9A3E9A339A379A369A0895EA
:1000900017BA979A82B3887F82BBC79B08C0959A8C
:1000A0000000000082B3807C82BBC799F8CF8FEF3D
:1000B00087BB0895959A0000000082B3807C82BBC4
:1000C0000895DF93CF930F92CDB7DEB789830E9457
:1000D0004800898188BB82B38B7782BB959A0000E8
:1000E000000082B3807C82BB18BA0F90CF91DF9161
:1000F0000895DF93CF930F92CDB7DEB789830E9427
:100100004800898188BB9798929A959A00000000D0
:1001100082B3807C82BB18BA0F90CF91DF91089593
:10012000CF93DF93EC018881181634F421960E9456
:10013000790089911816DCF3DF91CF9108958158E9
:10014000E62FF0E0EB59FF4F9081890F0E9461008C
:10015000089581B3846A81BB85EA9EE00197F1F737
:1001600000C0000081E00E94610083EF91E00197F0
:10017000F1F700C0000088E30E94610090E19A95C9
:10018000F1F700C08EE00E94610080E18A95F1F7EE
:1001900000C0089580E881BB82B312BA78940E94AF
:1001A00041000E94A900FFCF1F920F920FB60F923D
:1001B00011242F933F934F935F936F937F938F936C
:1001C0009F93AF93BF93EF93FF9381E00E946100F1
:1001D00080E690E00E9490008FE39DE0A3E08150D4
:1001E0009040A040E1F700C0000081E00E94610063
:1001F000FF91EF91BF91AF919F918F917F916F91FF
:100200005F914F913F912F910F900FBE0F901F90D4
:0C021000189585B190E00895F894FFCF98
:0A021C00446F6E6521000040145489
:00000001FF
