:1011E700E4FDFCC3ED9FEE6480F8EC648098501E2C
:1011F700E4F527F528F527F5280528E528700205E1
:071207002764F5452770F292
:07120E000DBD00010C80D5AD
:0112150022B6
:10128A007F387E001212A67F0C7E001212A67F0102
:0C129A007E001212A67F067E000212A643
:1012A6008FA05380FE5380FD4380047F017E001291
:0C12B60011E75380FB7F017E000211E76E
:1012C2008FA04380015380FD4380047F017E001282
:0C12D20011E75380FB7F027E000211E751
:061216008B228A238924CB
:10121C00E4F525F526AB22AA23A92485268285256B
:10122C0083120E53FF60113395E0FE1212C2052695
:08123C00E52670E1052580DDC7
:011244002287
:0312F80025780056
:0512DE00031030300098
:1011690012128A1212F475900FE4FD7FD01210D07A
:101179007FD01210718E1B8F1C7525FF7526127575
:1011890027F8851B28851C297B007A00791012080D
:101199005CE4F5127F80FE1212A67B007A007910BA
:0511A90012121680C4C3
:100F44004D4F4E00545545005745440054485500F4
:100F5400465249005341540053554E004A414E00F5
:100F6400464542004D415200415052004D41590006
:100F74004A554E004A554C004155470053455000D0
:100F84004F4354004E4F5600444543002C20002547
:100F940078002000203230003A00FF0F44FF0F4851
:100FA400FF0F4CFF0F50FF0F54FF0F58FF0F5CFF54
:100FB4000F60FF0F64FF0F68FF0F6CFF0F70FF0FD0
:100FC40074FF0F78FF0F7CFF0F80FF0F84FF0F88E3
:100FD400FF0F8C0005080E44474A03020302020275
:010FE400020A
:1012E3000E390037004300140004002400050054A5
:060B5C008B478A4889491D
:100B62007F807E001212A6900F9B75F003E5401263
:100B72000EF0E53F75F003A42583F583E493FB743F
:100B82000193FA740293F91212167BFF7A0F79908D
:100B92001212167525FF75260F7527938541288534
:100BA20042297B007A00793612085CE4F538FB7A38
:100BB2000079361212167BFF7A0F7996121216906E
:100BC2000FB075F003E544120EF0E54375F003A48F
:100BD2002583F583E493FB740193FA740293F9126B
:100BE20012167BFF7A0F79981212167525FF752659
:100BF2000F7527938545288546297B007A0079362B
:100C020012085CE4F538FB7A0079361212167FC4BA
:100C12007E001212A67525FF75260F752793853D56
:100C220028853E297B007A00793612085CE4F53883
:100C3200FB7A0079361212167BFF7A0F799C121218
:100C4200167525FF75260F752793853B28853C2948
:100C52007B007A00793612085CE4F538FB7A007979
:100C6200361212167BFF7A0F799C1212167525FF27
:100C720075260F752793853928853A297B007A00D6
:100C8200793612085CE4F538FB7A007936121216CE
:100C9200AB47AA48A949900004120EB8FFAEF0F47F
:100CA2007002EEF4605E900006120EB8640145F028
:100CB200705274D72FF582740F3EF583E49324802B
:100CC200FFE433FE1212A6E4F54AF54BAB47AA48FD
:100CD200A949900004120EB824DEF582740F35F093
:100CE200F583E493FFC3E54B9F7480F8654A9850FF
:100CF200137BFF7A0F7996121216054BE54B7002A1
:040D0200054A80C856
:010D060022CA
:0112FB0022D0
:0412F40043934022BE
:100D0700AF94EF120EFC0D35000D3B080D50100D82
:100D170065180DB9200D89280DB9300DBB380DC1E7
:100D2700400DB9480DE4500E115800000E31C20BAA
:100D3700751D01225393DF900000E025E0F595A390
:100D4700E0B401020595020E095393DF900000E01D
:100D570025E0F595A3E0B401020595020E09E4F537
:100D67001E900003E0FBA3E0FAA3E0F9120E3AF5A8
:100D770095439304900002E06003020E39439310F9
:100D8700802B051E900004E475F001120EA290005E
:100D970002E0FFE51EC39F5010A3E0FBA3E0FAA308
:100DA700E0F9120E3AF5958059439310E4F51DC208
:100DB7000B228020C20B751D0422900002E0B401B3
:100DC700028043900002E07004439310224393048F
:100DD700E4F51E22439310C20B751D0222900003F7
:100DE700E0FBA3E0FAA3E0F9AF1E8F82758300E56D
:100DF70095120E80051E900002E014FFE51EC39FAA
:100E07005004439304225393FB22900003E0FBA377
:100E1700E0FAA3E0F9AF1E8F82758300E595120E05
:100E270080439310C20BE4F51D22439310C20B7548
:030E37001D052274
:10111D00900000EFF0A209E433A3F0A3E54DF0A396
:10112D00E54EF0A3E54FF0A3E550F0E59320E4FB89
:10113D0053B1FDE4F51E200B1DD20BF51D4393207D
:10114D00300B0DE59330E3FB120D075393F780F051
:0C115D00439310AF1D224393107F062225
:1011AE00900000EFF0A20AE433A3F0A3E552F0A3FF
:1011BE00E553F0A3E554F0A3E555F0E59320E4FBE9
:1011CE00E4F51E200B0DF51DD20B53B1FD439320FC
:0911DE00AF1D224393107F06228D
:1010D000E59320E4FB439320E59330E3FBE5946440
:1010E0000870315393DFEF25E0F595439304539354
:1010F000F7E59330E3FBE594641870188D955393EE
:10110000F7E59330E3FBE594B42809439310539338
:0D111000F77F00225393DF5393F77F0522F2
:10107100752200752305E4F524F525E59320E4FBAD
:10108100439320E59330E3FBE5946408703C53936C
:10109100DFEF25E004F5954393045393F7E593308F
:1010A100E3FBE594644070225393FB5393F7E5937C
:1010B10030E3FBE594B45812AF957524008F2543B6
:0E10C10093105393F7E4F522F523AE26AF27E4
:0110CF0022FE
:0300430002126C3A
:10126C00C0E0C0F0C083C082C0D075D008120D079A
:0E127C005393F7D0D0D082D083D0F0D0E032A0
:03000000020FE507
:0C0FE500787FE4F6D8FD75815502102CD1
:100E3A00BB010689828A83E0225002E722BBFE02B6
:090E4A00E32289828A83E49322E9
:100E5300BB010CE58229F582E5833AF583E0225054
:100E630006E92582F8E622BBFE06E92582F8E2229E
:0D0E7300E58229F582E5833AF583E49322B8
:100E8000F8BB010DE58229F582E5833AF583E8F0A8
:100E9000225006E92582C8F622BBFE05E92582C854
:020EA000F2223C
:100EA200C5F0F8A3E028F0C5F0F8E58215827002DB
:060EB2001583E038F02278
:100EB800BB0110E58229F582E5833AF583E0F5F078
:100EC800A3E0225009E92582F886F008E622BBFE55
:100ED8000AE92582F8E2F5F008E222E5832AF5839B
:080EE800E993F5F0A3E9932260
:0C0EF000A42582F582E5F03583F583220D
:100EFC00D083D082F8E4937012740193700DA3A385
:100F0C0093F8740193F5828883E473740293686098
:060F1C00EFA3A3A380DF98
:10080000E5312425F8E605312278223007027825E3
:10081000E475F001120F34020E3A2000EB7F2ED265
:10082000008018EF540F2490D43440D4FF30040BD0
:10083000EF24BFB41A0050032461FFE532600215B3
:10084000320535E5357002053430070D7822E47540
:10085000F001120F34EF020F220212457403D20787
:100860008003E4C207F5318B228A238924E4F53220
:10087000F534F535E53260077F2012083B80F575C9
:1008800033FFC201C200C202C203C205C206C208CF
:10089000120809FF700D3007057F0012084CAF35B4
:1008A000AE3422B4255FC2D5C204120809FF24D099
:1008B000B40A00501A75F00A783230D50508B6FF30
:1008C0000106C6A426F620D5047002D20380D924DE
:1008D000CFB41A00EF5004C2E5D204020A4CD20190
:1008E00080C6D20080C0D20280BCD2D580BAD205E8
:1008F00080B47F2012083B2002077401B53200400B
:10090000F1120800FF12083B020874D208D20680D8
:1009100095120800FB120800FA120800F94A4B7001
:1009200006791D7A0B7BFF20022EE532602A7E00BD
:100930008E82758300120E5360060EEE653370F0E2
:10094000C2D5EBC0E0EAC0E0E9C0E0EE120A93D005
:10095000E0F9D0E0FAD0E0FB120E3AFF60AAEBC05B
:10096000E0EAC0E0E9C0E012083BD0E02401F9D0A1
:10097000E03400FAD0E0FBE5330460DCD533D98005
:10098000877BFF7A0A798FD202809C791080027966
:1009900008C206C2088008D2D5790A8004790AC242
:1009A000D5E533047002F533E4FAFDFEFF120800CA
:1009B000FC7B08200113120800FD7B1030000A1296
:1009C0000800FE120800FF7B20EC3382D592D55040
:1009D00013C3E43000069FFFE49EFEE42001039D64
:1009E000FDE49CFCE4CBF8C201EC700CCFCECDCC86
:1009F000E824F8F870F38017C3EF33FFEE33FEED11
:100A000033FDEC33FCEB33FB994002FB0FD8E9EBF1
:100A1000300105F8D0E0C448B201C0E00AEC4D4E08
:100A20004F78207B0070C2EAB5330040BCC0E012B2
:100A30000A95D0F0D0E0200104C4C0E0C4B201C0E7
:100A4000F0120824D0F0D5F0EB020874120EFC0965
:100A50001153098B5808E24C08DE42098F4F099761
:0F0A60004409974908F743099D550981460981C3
:100A6F00450981470B3D5008E62D08EA2E090D2B4D
:100A7F0008EE23090B200B262A08A64800000905BB
:100A8F003F3F3F00790AA2D5200314300509B91062
:100A9F00020404B9080104A2D52006025001042063
:100AAF0002689202B532005034C0E07F2030031943
:100ABF007F30A20272067205500F120AECC202C2F8
:100ACF0006C205C2087F30800F300503E9C0E0126F
:100ADF00083B300503D0E0F9D0E0B532CC30051734
:100AEF007F30B9100C12083B7F583004077F788095
:100AFF0003B9080312083B3002057F2D02083B7F24
:100B0F00202008F87F2B2006F322920280CF286E38
:100B1F00756C6C2900D2011208003001F8C20178FF
:100B2F003230D50108F60208A62D50434958120855
:100B3F00002403B405004001E4900B389312082CF5
:0D0B4F00743A12082CD20375320402098B8F
:100FF100021169E493A3F8E493A34003F68001F29C
:1010010008DFF48029E493A3F85407240CC8C33300
:10101100C4540F4420C8834004F456800146F6DFCF
:10102100E4800B01020408102040809012DEE47E6F
:10103100019360BCA3FF543F30E509541FFEE493C4
:10104100A360010ECF54C025E060A840B8E493A38B
:10105100FAE493A3F8E493A3C8C582C8CAC583CAB6
:10106100F0A3C8C582C8CAC583CADFE9DEE780BE6E
:0112F30000FA
:100F2200BB010689828A83F0225002F722BBFE01AE
:020F3200F322A8
:100F3400FAE6FB0808E6F925F0F618E6CA3AF622BE
:10124500EFB40A07740D121250740A309811A89958
:10125500B8130CC2983098FDA899C298B811F63009
:0712650099FDC299F59922E1
:00000001FF
