:100A1C00025C0001022CF82F18600F3C0E610D9443
:100A2C000CCF0C180B6D0AC50A280998090F088DF4
:100A3C00081220243400C800640064006400C8005C
:100A4C0064006400C8006400C80064006400C8004E
:100A5C00640064006400C800002024080000000248
:100A6C000004000500070009000B001000400010F6
:100A7C00000B000900070005000400020000000044
:040A8C00022E000036
:03000B00020A9155
:100A9100C0E0C0D0E55D6401455C7016B284C374EA
:100AA100FF952D74FF952CF58CC374FF952DF58A58
:070AB100D28CD0D0D0E0325E
:10080000E4F59043891143A882C284C374FF952DF7
:1008100074FF952CF58CC374FF952DF58AD28CD27C
:100820008EAF2FEF25E02434F8E6F55808E6F559A9
:10083000455870030208ECEF25E02408F8E6F5328D
:1008400008E6F53375300054F0F531AE30FF7C002A
:100850007D101209058E308F31755A00E533540F23
:10086000F55B25E02460F8E6F55E08E6F55FE53027
:10087000702FE531603624FE6014047024AE5EAF44
:100880005F7C007D021209058E5E8F5F800BE55F45
:1008900025E0F55FE55E33F55E755C00755D018012
:1008A0000B74FFF55EF55FE4F55CF55D855E2C8508
:1008B0005F2DC28FE4FBFAAE58AF597C007D051264
:1008C00008F3C3EB9FEE6480F8EA648098501275D9
:1008D0008DF0758B5F308FFDC28F0BBB00010A80DE
:1008E000D6052FE52F7002052E020821E4F55CF5F0
:0308F0005D80FE2A
:0300000002099062
:0C099000787FE4F6D8FD7581770209D766
:1008F300EF8DF0A4A8F0CF8CF0A428CE8DF0A42E19
:02090300FE22D2
:10090500C2D5EC30E709B2D5E4C39DFDE49CFCEE0D
:1009150030E715B2D5E4C39FFFE49EFE12093BC341
:10092500E49DFDE49CFC800312093B30D507C3E43C
:060935009FFFE49EFE227C
:10099C00020800E493A3F8E493A34003F68001F269
:1009AC0008DFF48029E493A3F85407240CC8C3335C
:1009BC00C4540F4420C8834004F456800146F6DF2B
:1009CC00E4800B0102040810204080900A1CE47E95
:1009DC00019360BCA3FF543F30E509541FFEE49320
:1009EC00A360010ECF54C025E060A840B8E493A3E7
:1009FC00FAE493A3F8E493A3C8C582C8CAC583CA12
:100A0C00F0A3C8C582C8CAC583CADFE9DEE780BEC9
:010A90000065
:10093B00BC000BBE0029EF8DF084FFADF022E4CCA0
:10094B00F875F008EF2FFFEE33FEEC33FCEE9DEC69
:10095B00984005FCEE9DFE0FD5F0E9E4CEFD22EDAF
:10096B00F8F5F0EE8420D21CFEADF075F008EF2FF9
:10097B00FFED33FD4007985006D5F0F222C398FDEA
:05098B000FD5F0EA2287
:00000001FF
