:100000000C942A000C9434000C9434000C943400AA
:100010000C9434000C9434000C9434000C94340090
:100020000C9434000C9434000C9434000C94340080
:100030000C9434000C9434000C9434000C94340070
:100040000C9434000C9434000C9434000C94340060
:100050000C94340011241FBECFE5D8E0DEBFCDBF25
:100060000E9436000C9455000C94000081E087BB80
:10007000C09A10BC86E089B988E18AB986E880BD5B
:1000800091E05F9BFECF8CB18136D9F788B3892789
:1000900088BBF7CF90BD89B988E18AB986E880BD71
:0E00A00008955F9BFECF8CB10895F894FFCFBA
:00000001FF
