:100000000C9456000C9468000C9468000C946800E2
:100010000C9468000C9468000C9468000C946800C0
:100020000C9468000C9468000C9468000C946800B0
:100030000C9468000C9468000C9468000C946800A0
:100040000C9468000C9468000C9468000C94680090
:100050000C9468000C9468000C9468000C94680080
:100060000C9468000C9468000C9468000C94680070
:100070000C9468000C9481000C9468000C94680047
:100080000C9468000C9468000C9468000C94680050
:100090000C9468000C9468000C9468000C94680040
:1000A0000C9468000C9468000C94680011241FBE26
:1000B000CFEFDAE0DEBFCDBF11E0A0E0B1E001C0DC
:1000C0001D92A430B107E1F70E94F7020C94690376
:1000D0000C940000EAE7F0E0808187608083ACE761
:1000E000B0E08C9180648C93808188608083808173
:1000F00080688083089510BA11BA8FEF87B918B855
:1001000008951F920F920FB60F9211242F933F93D1
:100110004F935F936F937F938F939F93AF93BF930F
:10012000EF93FF938091780090917900792F60E0B0
:10013000680F711D882777FD8095982F0E94010117
:100140006093000170930101809302019093030179
:100150006091000170910101809102019091030171
:1001600020E030E040E054E40E94D2001816BCF0D9
:1001700018B880917A00806480937A00FF91EF91A3
:10018000BF91AF919F918F917F916F915F914F91AF
:100190003F912F910F900FBE0F901F9018958FEFEA
:1001A00088B9E7CFA8E1B0E0E8EDF0E00C942703D0
:1001B0006D8B7E8B8F8B988F298B3A8B4B8B5C8BC7
:1001C000BE01675F7F4FCE0145960E942702BE01A8
:1001D0006F5F7F4FCE0141960E9427028985823052
:1001E00058F08981823040F0BE016F5F7F4FCE01B1
:1001F00009960E94960201C08FEF6896E2E00C9487
:100200004303A8E0B0E0E7E0F1E00C94250323E02D
:1002100029838B019C01002737FD03951127222795
:100220003327402F0A83611571058105910519F463
:1002300082E0898335C02EE130E03C832B83442368
:1002400071F061157105810520E8920771F10027B1
:1002500011279801061B170B280B390B02C08B01C5
:100260009C01C901B8010E944E0301971816190696
:100270002CF00D831E832F83388712C0082E04C0F4
:10028000000F111F221F331F0A94D2F70D831E8304
:100290002F8338872EE130E0281B390B3C832B83DA
:1002A000CE0101960E945D0104C060E070E080E034
:1002B0009FEC2896E4E00C9441030F931F93CF9397
:1002C000DF93DC0114964D915D916D917C911797B0
:1002D0001196EC9111978C91823020F460618FEF30
:1002E00090E0A6C0843009F49EC0823009F495C025
:1002F000411551056105710509F492C012962D91C1
:100300003C91139722388FEF38070CF058C0C2E8A1
:10031000DFEFC21BD30BCA31D1056CF58A019B01FB
:100320000C2E04C036952795179507950A94D2F799
:1003300081E090E0A0E0B0E00C2E04C0880F991F8F
:10034000AA1FBB1F0A94D2F70197A109B109842300
:100350009523A623B72341E050E060E070E0892BAD
:100360008A2B8B2B19F440E050E0BA01402B512B23
:10037000622B732B03C040E050E0BA01DB01CA01DD
:100380008F779927AA27BB2780349105A105B1054E
:1003900039F447FF09C0405C5F4F6F4F7F4F04C087
:1003A000415C5F4F6F4F7F4F81E090E041155105F9
:1003B000610520E4720748F580E090E026C020380F
:1003C00031058CF5DB01CA018F779927AA27BB2756
:1003D00080349105A105B10539F447FF09C0405C9F
:1003E0005F4F6F4F7F4F04C0415C5F4F6F4F7F4F38
:1003F00077FD04C0C90181589F4F07C07695679566
:1004000057954795C90180589F4F97E07695679516
:10041000579547959A95D1F70BC080E090E005C0BD
:1004200080E090E005C08FEF90E040E050E0BA013E
:10043000982F9695E0FB97F9362F80FB37F9642FBC
:10044000752F832FDF91CF911F910F910895CF9238
:10045000DF92EF92DC01FB01CC901196DC901197BA
:1004600012968C9112973FE7E32EE8226E2DA6019B
:1004700070E0982F991F9927991F13962C91822F1E
:10048000880F892B90E027FB222720F921830097F2
:1004900029F5411551056105710511F482E027C068
:1004A00082E89FEF9383828327E0440F551F661FE6
:1004B000771F2A95D1F783E0808309C0440F551F29
:1004C000661F771F828193810197938382834115F1
:1004D0005105610580E4780788F320C08F3F9105BE
:1004E00079F4411551056105710519F484E08083A3
:1004F00019C0E4FE03C081E0808310C010820EC0EA
:100500008F5791099383828383E0808387E0440F30
:10051000551F661F771F8A95D1F7706444835583F2
:1005200066837783EF90DF90CF900895CF93FC019F
:10053000DB019081923008F452C08C91823008F433
:100540004EC0943071F4843039F411962C9130E01F
:100550008181281B310948C08181882309F43FC06B
:100560003BC0843029F411968C91811138C034C07D
:10057000923019F48230B9F735C0823069F3C18105
:1005800011968C911197C8131DC022813381129648
:100590008D919C911397821793070CF413C0281721
:1005A00039070CF417C04481558166817781149610
:1005B0008D919D910D90BC91A02D84179507A60754
:1005C000B70718F4C11108C00AC0481759076A07CD
:1005D0007B0740F4C11103C02FEF3FEF05C021E0BE
:1005E00030E002C020E030E0C901CF91089510BA98
:1005F00011BA8FEF87B918B880917A00876080931D
:100600007A0080917C00806480937C0080917A00E5
:10061000886080937A0080917A00806880937A0065
:10062000789480917A00806480937A00FFCF2F9233
:100630003F924F925F926F927F928F929F92AF9272
:10064000BF92CF92DF92EF92FF920F931F93CF93BF
:10065000DF93CDB7DEB7CA1BDB0B0FB6F894DEBF56
:100660000FBECDBF09942A88398848885F846E847C
:100670007D848C849B84AA84B984C884DF80EE80C6
:10068000FD800C811B81AA81B981CE0FD11D0FB6CF
:10069000F894DEBF0FBECDBFED0108950E94570351
:1006A00084FF0895CB010E945703805F0895AA2715
:1006B000992329F4A85F982B11F480E108959031D3
:1006C00018F4AD5F9295A395990FE8F78A2F9927B3
:0606D0000895F894FFCF2D
:00000001FF
