:100000000C9456000C9473000C9473000C947300C1
:100010000C9473000C9473000C9473000C94730094
:100020000C9473000C9473000C9473000C94730084
:100030000C9473000C9473000C9473000C94730074
:100040000C9473000C9473000C9473000C94730064
:100050000C9473000C9473000C9473000C94730054
:100060000C9473000C9473000C9473000C94730044
:100070000C9473000C9473000C9473000C94730034
:100080000C9473000C9473000C9473000C94730024
:100090000C9473000C9473000C9473000C94730014
:1000A0000C9473000C9473000C94730011241FBE05
:1000B000CFEFDAE0DEBFCDBF11E0A8E0B1E001C0D4
:1000C0001D92AC30B107E1F711E0A0E0B1E0E0E44F
:1000D000FEE002C005900D92A830B107D9F70E944A
:1000E0006A060C941E070C940000EAE7F0E0808199
:1000F00087608083ACE7B0E08C9180648C938081D2
:1001000080688083089510BA11BA8FEF84B915B84A
:100110000895CF92DF92EF92FF920F931F936B019E
:100120007C0120E030E040E05FE40E94F60387FDC0
:100130000EC020E030E040E05FE4C701B6010E945D
:100140003E020E9481048B019C01305806C0C70109
:10015000B6010E9481048B019C01B801C9011F9165
:100160000F91FF90EF90DF90CF900895A4E0B0E062
:10017000ECEBF0E00C94CE067C016A01FC0180817E
:10018000823008F44AC1FB019081923008F442C1E8
:10019000843079F4943009F040C1F7019181FB017A
:1001A0008181981709F439C1A0E0EA2EA1E0FA2E66
:1001B00034C1943009F42EC1923091F4823009F0A8
:1001C0002CC188E0F701DA0101900D928A95E1F7E0
:1001D000FB018181F70191818923FA0181831CC18F
:1001E000823009F417C1F70182819381FB01A2815A
:1001F000B381F7010481158126813781FB01848059
:100200009580A680B780FC01EA1BFB0BAF01F7FFCE
:1002100004C0442755274E1B5F0B403251050CF09C
:1002200074C01E161F06B4F524013501042E04C047
:1002300076946794579447940A94D2F749825A82E5
:100240006B827C82412C512C3201439404C0440CBB
:10025000551C661C771C4A95D2F741E0441A510898
:1002600061087108482059206A207B20812C912C3C
:100270005401839445284628472819F4812C912C51
:10028000540149805A806B807C8084289528A62858
:10029000B72846C0EF2B09F443C0840F951F2801EF
:1002A0003901042E04C076946794579447940A94B5
:1002B000D2F749825A826B827C82412C512C3201C6
:1002C000439404C0440C551C661C771C4A95D2F715
:1002D00041E0441A5108610871084022512262220B
:1002E000732201E010E020E030E04528462847284E
:1002F00019F400E010E0980149805A806B807C80FE
:1003000004291529262937290BC0A817B90724F471
:10031000812C912C540104C0CD0100E010E0980123
:10032000F7014181FB015181451709F446C044237F
:1003300049F024013501401A510A620A730A9301F7
:10034000820104C0081919092A093B0937FD05C0B3
:10035000F6011182938382830CC041E0F601418350
:100360009383828330952095109501951F4F2F4FD1
:100370003F4F04831583268337830EC0880F991F50
:10038000AA1FBB1FF60184839583A683B78382814E
:100390009381019793838283F60184819581A6815D
:1003A000B781AC01BD0141505109610971094F3F4D
:1003B0005F4F6F4F7F4310F30CC0F601418393836F
:1003C0008283080D191D2A1D3B1D04831583268376
:1003D000378383E0F601808344815581668177818C
:1003E00077FF1AC0DB01CA0181709927AA27BB27B2
:1003F0007695679557954795842B952BA62BB72B0C
:1004000084839583A683B7838281938101969383A6
:10041000828302C07B0101C07601C7012496E0E11E
:100420000C94EA06A0E2B0E0E8E1F2E00C94DC060D
:100430006D8F7E8F8F8F98A3298F3A8F4B8F5C8F14
:10044000BE016F5E7F4FCE014D960E949A05BE01A0
:10045000675F7F4FCE0149960E949A05AE014F5FBC
:100460005F4FBE01675F7F4FCE0141960E94B6008D
:100470000E94D004A096E2E00C94F806A0E2B0E05E
:10048000E4E4F2E00C94DC066D8F7E8F8F8F98A3EE
:10049000298F3A8F4B8F5C8FBE016F5E7F4FCE01ED
:1004A0004D960E949A05BE01675F7F4FCE01499627
:1004B0000E949A058A8591E089278A87AE014F5F5D
:1004C0005F4FBE01675F7F4FCE0141960E94B6002D
:1004D0000E94D004A096E2E00C94F806A0E2B0E0FE
:1004E000E4E7F2E00C94CE066D8F7E8F8F8F98A399
:1004F000298F3A8F4B8F5C8FBE016F5E7F4FCE018D
:100500004D960E949A05BE01675F7F4FCE014996C6
:100510000E949A059989923008F412C08985823028
:1005200008F41AC0943021F4823009F4B4C008C031
:10053000843021F4923009F4AEC00EC0923051F4F0
:1005400081E02A899A85291301C080E08A8BCE0137
:100550004196A3C0823051F481E02A899A852913FB
:1005600001C080E08A87CE01099697C08D889E8859
:10057000AF88B88C0D851E852F853889E0E2F0E0C4
:1005800080E090E0DC01C12CD12C760140E050E00D
:10059000BA0180FE18C0400F511F621F731F8C0DDF
:1005A0009D1DAE1DBF1D412C512C3201439440179F
:1005B00051076207730718F0412C512C3201840D4A
:1005C000951DA61DB71DCC0CDD1CEE1CFF1C37FFB6
:1005D00002C06894C0F8000F111F221F331FB69489
:1005E000A794979487943197A1F62B893C89EB8542
:1005F000FC852E0F3F1F2E5F3F4F3C832B8321E056
:10060000EA893A85E31301C020E02A83EB81FC816B
:100610000CC080FF05C07695679557954795706823
:10062000B695A795979587953196B7FDF2CF9F011F
:100630000CC0880F991FAA1FBB1F77FD8160440F54
:10064000551F661F771F215031090097A105E0E46F
:10065000BE0778F32B833C838C019D010F77112714
:1006600022273327003411052105310559F487FD70
:1006700009C0452B462B472B29F0805C9F4FAF4F7D
:10068000BF4F80788D839E83AF83B88783E0898353
:10069000CE01019602C080E091E00E94D004A096B5
:1006A000E0E10C94EA06A8E1B0E0E9E5F3E00C949F
:1006B000D6066D8B7E8B8F8B988F298B3A8B4B8BCD
:1006C0005C8BBE01675F7F4FCE0145960E949A0505
:1006D000BE016F5F7F4FCE0141960E949A059985BA
:1006E000923008F475C08981823008F474C02A857C
:1006F0003A8123272A87943011F0923019F4981305
:1007000067C06CC0843039F41D861E861F86188A27
:100710001C861B8604C0823029F484E08987CE01C0
:1007200009965EC08B859C852B813C81821B930B37
:100730009C878B874D855E856F857889CD80DE802F
:10074000EF80F8844C155D056E057F0538F4440F85
:10075000551F661F771F01979C878B87EFE1F0E09D
:1007600000E010E020E030E480E090E0DC014C1597
:100770005D056E057F0540F0802B912BA22BB32BDE
:100780004C195D096E097F093695279517950795D0
:10079000440F551F661F771F319749F78C019D0144
:1007A0000F77112722273327003411052105310542
:1007B00059F487FD09C0452B462B472B29F0805C57
:1007C0009F4FAF4FBF4F80788D879E87AF87B88B85
:1007D000CE01099605C0CE01019602C080E091E0ED
:1007E0000E94D0046896E8E00C94F206A8E1B0E01C
:1007F000ECEFF3E00C94DC066D8B7E8B8F8B988F87
:10080000298B3A8B4B8B5C8BBE01675F7F4FCE0190
:1008100045960E949A05BE016F5F7F4FCE014196BB
:100820000E949A058985823058F08981823040F093
:10083000BE016F5F7F4FCE0109960E94090601C07D
:100840008FEF6896E2E00C94F806A8E0B0E0EBE2E7
:10085000F4E00C94DA0623E029838B019C01002745
:1008600037FD0395112722273327402F0A8361156F
:1008700071058105910519F482E0898335C02EE167
:1008800030E03C832B83442371F0611571058105B1
:1008900020E8920771F1002711279801061B170B1A
:1008A000280B390B02C08B019C01C901B8010E94C1
:1008B00003070197181619062CF00D831E832F834A
:1008C000388712C0082E04C0000F111F221F331FCB
:1008D0000A94D2F70D831E832F8338872EE130E0F0
:1008E000281B390B3C832B83CE0101960E94D00438
:1008F00004C060E070E080E09FEC2896E4E00C9497
:10090000F606ACE0B0E0E7E8F4E00C94DA066987BC
:100910007A878B879C87BE016F5F7F4FCE010996D8
:100920000E949A058981823091F1823080F1843071
:1009300041F48A81882331F100E010E020E030E8C2
:1009400029C02B813C8137FD22C02F3131058CF726
:100950008EE190E0821B930B0D811E812F813885E3
:1009600004C036952795179507958A95D2F78A8101
:10097000882381F030952095109501951F4F2F4FBA
:100980003F4F08C00FEF1FEF2FEF3FE703C000E01E
:1009900010E09801B801C9012C96E4E00C94F60629
:1009A0000F931F93CF93DF93DC0114964D915D91CC
:1009B0006D917C9117971196EC9111978C918230E3
:1009C00020F460618FEF90E0A6C0843009F49EC0EF
:1009D000823009F495C0411551056105710509F48E
:1009E00092C012962D913C91139722388FEF3807C1
:1009F0000CF058C0C2E8DFEFC21BD30BCA31D105DF
:100A00006CF58A019B010C2E04C03695279517952D
:100A100007950A94D2F781E090E0A0E0B0E00C2EB8
:100A200004C0880F991FAA1FBB1F0A94D2F7019711
:100A3000A109B10984239523A623B72341E050E0FF
:100A400060E070E0892B8A2B8B2B19F440E050E09A
:100A5000BA01402B512B622B732B03C040E050E0B6
:100A6000BA01DB01CA018F779927AA27BB278034F7
:100A70009105A105B10539F447FF09C0405C5F4FFE
:100A80006F4F7F4F04C0415C5F4F6F4F7F4F81E0DE
:100A900090E041155105610520E4720748F580E0BA
:100AA00090E026C0203831058CF5DB01CA018F7734
:100AB0009927AA27BB2780349105A105B10539F4F0
:100AC00047FF09C0405C5F4F6F4F7F4F04C0415CE0
:100AD0005F4F6F4F7F4F77FD04C0C90181589F4F13
:100AE00007C07695679557954795C90180589F4FE0
:100AF00097E076956795579547959A95D1F70BC0EE
:100B000080E090E005C080E090E005C08FEF90E0CD
:100B100040E050E0BA01982F9695E0FB97F9362F08
:100B200080FB37F9642F752F832FDF91CF911F91B1
:100B30000F910895CF92DF92EF92DC01FB01CC90F0
:100B40001196DC90119712968C9112973FE7E32E45
:100B5000E8226E2DA60170E0982F991F9927991F02
:100B600013962C91822F880F892B90E027FB222748
:100B700020F92183009729F541155105610571057B
:100B800011F482E027C082E89FEF9383828327E0FD
:100B9000440F551F661F771F2A95D1F783E0808386
:100BA00009C0440F551F661F771F828193810197EB
:100BB0009383828341155105610580E4780788F3AA
:100BC00020C08F3F910579F44115510561057105EC
:100BD00019F484E0808319C0E4FE03C081E08083BF
:100BE00010C010820EC08F5791099383828383E0D7
:100BF000808387E0440F551F661F771F8A95D1F7C2
:100C000070644483558366837783EF90DF90CF9041
:100C10000895CF93FC01DB019081923008F452C01B
:100C20008C91823008F44EC0943071F4843039F4E1
:100C300011962C9130E08181281B310948C08181B7
:100C4000882309F43FC03BC0843029F411968C916D
:100C5000811138C034C0923019F48230B9F735C0F0
:100C6000823069F3C18111968C911197C8131DC010
:100C70002281338112968D919C911397821793074D
:100C80000CF413C0281739070CF417C044815581A0
:100C90006681778114968D919D910D90BC91A02DC8
:100CA00084179507A607B70718F4C11108C00AC032
:100CB000481759076A077B0740F4C11103C02FEF9B
:100CC0003FEF05C021E030E002C020E030E0C90184
:100CD000CF91089510BA11BA8FEF84B915B884B5C1
:100CE000836884BD80916F00816080936F008091E4
:100CF0007A00876080937A0080917C008064809382
:100D00007C0080917A00806880937A00789485B521
:100D1000836085BD80917A00806480937A008091A1
:100D20007A00806480937A008091780090917900B5
:100D3000D92F90E0C92FBE01680F711D882777FD5C
:100D40008095982F0E9425046093080170930901F3
:100D500080930A0190930B01609108017091090141
:100D600080910A0190910B0120E030EC4FE754E4B0
:100D70000E94530320E030E040E853E40E946E02FA
:100D80000E94890067BD109208011092090110921B
:100D90000A0110920B01C3CF2F923F924F925F92A4
:100DA0006F927F928F929F92AF92BF92CF92DF927B
:100DB000EF92FF920F931F93CF93DF93CDB7DEB7E0
:100DC000CA1BDB0B0FB6F894DEBF0FBECDBF099474
:100DD0002A88398848885F846E847D848C849B84CB
:100DE000AA84B984C884DF80EE80FD800C811B81D9
:100DF000AA81B981CE0FD11D0FB6F894DEBF0FBE08
:100E0000CDBFED0108950E940C0784FF0895CB012A
:100E10000E940C07805F0895AA27992329F4A85FF0
:100E2000982B11F480E10895903118F4AD5F9295FC
:100E3000A395990FE8F78A2F99270895F894FFCF83
:080E40000000000000000000AA
:00000001FF
