:100000000C942A000C9447000C9447000C94470071
:100010000C9447000C9447000C9447000C94470044
:100020000C9447000C9447000C9447000C94470034
:100030000C9447000C9447000C9447000C94470024
:100040000C9447000C9447000C9447000C94470014
:100050000C94470011241FBECFE5D8E0DEBFCDBF12
:1000600010E0A0E6B0E0ECEFF2E002C005900D92E7
:10007000A436B107D9F710E0A4E6B0E001C01D92A4
:10008000AE36B107E1F70E9446010C947C010C9456
:10009000000017BA979A82B3887F82BBC79B08C0BB
:1000A000959A0000000082B3807C82BBC799F8CF8C
:1000B0008FEF87BB0895959A0000000082B3807C83
:1000C00082BB0895DF93CF930F92CDB7DEB78983BC
:1000D0000E944900898188BB82B38B7782BB959A45
:1000E0000000000082B3807C82BB18BA0F90CF91D1
:1000F000DF910895DF93CF930F92CDB7DEB7898359
:100100000E944900898188BB9798929A959A00002D
:10011000000082B3807C82BB18BA0F90CF91DF9130
:100120000895CF93DF93EC018881181634F421965B
:100130000E947A0089911816DCF3DF91CF9108951F
:100140008158E62FF0E0E15AFF4F9081890F0E941D
:100150006200089581B3846A81BB85EA9EE00197BD
:10016000F1F700C0000081E00E94620083EF91E09F
:100170000197F1F700C000008CE00E94620083EF5D
:1001800091E00197F1F700C0000088E30E9462004F
:1001900090E19A95F1F700C08EE00E94620080E144
:1001A0008A95F1F700C00895EF92FF920F931F9385
:1001B000DF93CF93CDB7DEB760970FB6F894DEBF6D
:1001C0000FBECDBF1A8219821C821B821E821D8225
:1001D00018861F821A8619861C861B861E861D8617
:1001E000188A1F86E82FF92F64E070E08E010F5FF8
:1001F0001F4F22E0E22EF12C4191519120E030E09E
:1002000001C09C01C90101968417950739F1883016
:100210009105B9F761507040BFEF6F3F7B0761F701
:1002200080E40E94620081E1E82EF12CEC0EFD1EBC
:10023000F80180810E5F1F4F0E9462000E151F059E
:10024000B9F760960FB6F894DEBF0FBECDBFCF9161
:10025000DF911F910F91FF90EF900895220F331FB0
:10026000200F311FAB014E255F25D9018D919C9147
:100270001197840F951F11969C938E936150704037
:10028000BFEF6F3F7B0709F0B7CFCACF0E94AA002C
:100290008CE00E94620081E090E090936500809382
:1002A000640082E090E0909367008093660083E0B2
:1002B00090E0909369008093680084E090E09093D0
:1002C0006B0080936A0085E090E090936D008093CE
:1002D0006C0084E690E00E94D40081E061E00E941E
:1002E000A00080E00E947A0081E062E00E94A0000D
:0C02F00081E40E947A00FFCFF894FFCF59
:0402FC000040145456
:00000001FF
