:100000000C942A000C943C000C943C000C943C0092
:100010000C943C000C943C000C943C000C943C0070
:100020000C943C000C943C000C943C000C943C0060
:100030000C943C000C943C000C943C000C943C0050
:100040000C943C000C943C000C943C000C943C0040
:100050000C943C0011241FBECFE5D8E0DEBFCDBF1D
:1000600010E0A0E6B0E001C01D92A436B107E1F7B0
:100070000E9473000C94B8000C9400001092610070
:1000800010926000282F392F37FD13C03595279522
:10009000121613066CF480916000909161000000CC
:1000A0000196909361008093600082179307BCF3E0
:1000B00008952F5F3F4FEACF22B3205822BB9C0107
:1000C000442737FD4095542F60E472E48FE090E0C0
:1000D0000E947B00C9013093630020936200039764
:1000E0000E943E00089580E881BB12BA80E29EE43F
:1000F0000E945C00FBCF97FB092E05260ED057FD12
:1001000004D014D00AD0001C38F450954095309596
:1001100021953F4F4F4F5F4F0895F6F7909580958B
:10012000709561957F4F8F4F9F4F0895A1E21A2ED2
:10013000AA1BBB1BFD010DC0AA1FBB1FEE1FFF1F8B
:10014000A217B307E407F50720F0A21BB30BE40BDB
:10015000F50B661F771F881F991F1A9469F7609522
:100160007095809590959B01AC01BD01CF010895DC
:04017000F894FFCF31
:00000001FF
