:100E4400E4FDFCC3ED9FEE6480F8EC648098501ED2
:100E5400E4F50DF50EF50DF50E050EE50E70020523
:070E64000D64F5450D70F26D
:070E6B000DBD00010C80D554
:010E7200225D
:100EC9007F387E00120EE57F0C7E00120EE57F0151
:0C0ED9007E00120EE57F067E00020EE592
:100EE5008FA05380FE5380FD4380047F017E001256
:0C0EF5000E445380FB7F017E00020E447F
:100F01008FA04380015380FD4380047F017E001246
:0C0F11000E445380FB7F027E00020E4461
:060E73008B088A09890AC0
:100E7900E4F50BF50CAB08AA09A90A850C82850BC8
:100E890083120D58FF60113395E0FE120F01050C16
:080E9900E50C70E1050B80DDA2
:010EA100222E
:100DE6004D4F4E0054554500574544005448550054
:100DF600465249005341540053554E002000257871
:100E0600004A414E00464542004D41520041505273
:100E1600004D4159004A554E004A554C0041554730
:100E260000534550004F4354004E4F56004445432F
:0E0E360000203230003A0037431404240554E3
:100B5C00120EC97F807E00120EE5900E40E49314B5
:100B6C00B40700505C900B7F75F003A4C58325F08F
:100B7C00C58373020B94020B9C020BA4020BAC02F8
:100B8C000BB4020BBC020BC47BFF7A0D79E6802EF2
:100B9C007BFF7A0D79EA80267BFF7A0D79EE801E39
:100BAC007BFF7A0D79F280167BFF7A0D79F6800E39
:100BBC007BFF7A0D79FA80067BFF7A0D79FE120E97
:100BCC00737BFF7A0E7902120E73750BFF750C0E88
:100BDC00750D04900E41E493F50E7B007A00791CA0
:100BEC0012085CE4F51EFB7A00791C120E737BFF75
:100BFC007A0E7902120E73900E42E49314B40C0028
:100C0C004003020CA4900C1F75F003A4C58325F0BF
:100C1C00C58373020C43020C4B020C53020C5B0297
:100C2C000C63020C6B020C73020C7B020C83020C27
:100C3C008B020C93020C9B7BFF7A0E790780567B00
:100C4C00FF7A0E790B804E7BFF7A0E790F80467BF4
:100C5C00FF7A0E7913803E7BFF7A0E791780367BF4
:100C6C00FF7A0E791B802E7BFF7A0E791F80267BF4
:100C7C00FF7A0E7923801E7BFF7A0E792780167BF4
:100C8C00FF7A0E792B800E7BFF7A0E792F80067BF4
:100C9C00FF7A0E7933120E737BFF7A0E7937120EB0
:100CAC0073750BFF750C0E750D04900E43E493F5E4
:100CBC000E7B007A00791C12085CE4F51EFB7A00AE
:100CCC00791C120E737FC47E00120EE5750BFF7536
:100CDC000C0E750D04900E3FE493F50E7B007A001C
:100CEC00791C12085CE4F51EFB7A00791C120E7359
:100CFC007BFF7A0E793B120E73750BFF750C0E751C
:100D0C000D04900E3EE493F50E7B007A00791C12D4
:100D1C00085CE4F51EFB7A00791C120E737BFF7ADB
:100D2C000E793B120E73750BFF750C0E750D04903E
:100D3C000E3DE493F50E7B007A00791C12085CE4FE
:0C0D4C00F51EFB7A00791C120E7380FE6D
:03000000020F1DCF
:0C0F1D00787FE4F6D8FD758121020B5CA2
:100D5800BB010CE58229F582E5833AF583E0225050
:100D680006E92582F8E622BBFE06E92582F8E2229A
:0D0D7800E58229F582E5833AF583E49322B4
:10080000E517240BF8E60517227808300702780B65
:10081000E475F001120DB0020D852000EB7F2ED2A1
:10082000008018EF540F2490D43440D4FF30040BD0
:10083000EF24BFB41A0050032461FFE518600215CD
:1008400018051BE51B7002051A30070D7808E475C2
:10085000F001120DB0EF020D9E020EA27403D2073A
:100860008003E4C207F5178B088A09890AE4F518A2
:10087000F51AF51BE51860077F2012083B80F57517
:1008800019FFC201C200C202C203C205C206C208E9
:10089000120809FF700D3007057F0012084CAF1BCE
:1008A000AE1A22B4255FC2D5C204120809FF24D0B3
:1008B000B40A00501A75F00A781830D50508B6FF4A
:1008C0000106C6A426F620D5047002D20380D924DE
:1008D000CFB41A00EF5004C2E5D204020A4CD20190
:1008E00080C6D20080C0D20280BCD2D580BAD205E8
:1008F00080B47F2012083B2002077401B518004025
:10090000F1120800FF12083B020874D208D20680D8
:1009100095120800FB120800FA120800F94A4B7001
:1009200006791D7A0B7BFF20022EE518602A7E00D7
:100930008E82758300120D5860060EEE651970F0F8
:10094000C2D5EBC0E0EAC0E0E9C0E0EE120A93D005
:10095000E0F9D0E0FAD0E0FB120D85FF60AAEBC011
:10096000E0EAC0E0E9C0E012083BD0E02401F9D0A1
:10097000E03400FAD0E0FBE5190460DCD519D98039
:10098000877BFF7A0A798FD202809C791080027966
:1009900008C206C2088008D2D5790A8004790AC242
:1009A000D5E519047002F519E4FAFDFEFF120800FE
:1009B000FC7B08200113120800FD7B1030000A1296
:1009C0000800FE120800FF7B20EC3382D592D55040
:1009D00013C3E43000069FFFE49EFEE42001039D64
:1009E000FDE49CFCE4CBF8C201EC700CCFCECDCC86
:1009F000E824F8F870F38017C3EF33FFEE33FEED11
:100A000033FDEC33FCEB33FB994002FB0FD8E9EBF1
:100A1000300105F8D0E0C448B201C0E00AEC4D4E08
:100A20004F78207B0070C2EAB5190040BCC0E012CC
:100A30000A95D0F0D0E0200104C4C0E0C4B201C0E7
:100A4000F0120824D0F0D5F0EB020874120DC009A2
:100A50001153098B5808E24C08DE42098F4F099761
:0F0A60004409974908F743099D550981460981C3
:100A6F00450981470B3D5008E62D08EA2E090D2B4D
:100A7F0008EE23090B200B262A08A64800000905BB
:100A8F003F3F3F00790AA2D5200314300509B91062
:100A9F00020404B9080104A2D52006025001042063
:100AAF0002689202B518005034C0E07F203003195D
:100ABF007F30A20272067205500F120AECC202C2F8
:100ACF0006C205C2087F30800F300503E9C0E0126F
:100ADF00083B300503D0E0F9D0E0B518CC3005174E
:100AEF007F30B9100C12083B7F583004077F788095
:100AFF0003B9080312083B3002057F2D02083B7F24
:100B0F00202008F87F2B2006F322920280CF286E38
:100B1F00756C6C2900D2011208003001F8C20178FF
:100B2F001830D50108F60208A62D5043495812086F
:100B3F00002403B405004001E4900B389312082CF5
:0D0B4F00743A12082CD20375180402098BA9
:100D8500BB010689828A83E0225002E722BBFE026C
:090D9500E32289828A83E493229F
:100D9E00BB010689828A83F0225002F722BBFE0134
:020DAE00F3222E
:100DB000FAE6FB0808E6F925F0F618E6CA3AF62244
:100DC000D083D082F8E4937012740193700DA3A3C2
:100DD00093F8740193F5828883E4737402936860D6
:060DE000EFA3A3A380DFD6
:100EA200EFB40A07740D120EAD740A309811A899A6
:100EB200B8130CC2983098FDA899C298B811F630B0
:070EC20099FDC299F5992288
:00000001FF
