:100000000C942A000C9434000C9434000C943400AA
:100010000C9434000C9434000C9434000C94340090
:100020000C9434000C9434000C9434000C94340080
:100030000C9434000C9434000C9434000C94340070
:100040000C9434000C9434000C9434000C94340060
:100050000C94340011241FBECFE5D8E0DEBFCDBF25
:100060000E9436000C9444000C94000081E08ABB8E
:100070001BBA91E08BB389278BBBE7EAF1E6319796
:0C008000F1F700C00000F6CFF894FFCFAD
:00000001FF
