:10103B004D4F4E00545545005745440054485500FC
:10104B00465249005341540053554E004A414E00FD
:10105B00464542004D415200415052004D4159000E
:10106B004A554E004A554C004155470053455000D8
:10107B004F4354004E4F5600444543002C2000254F
:10108B00780020002032300020202020003A00FF82
:10109B00103BFF103FFF1043FF1047FF104BFF109B
:1010AB004FFF1053FF1057FF105BFF105FFF1063D4
:1010BB00FF1067FF106BFF106FFF1073FF1077FFB0
:1010CB00107BFF107FFF108300050009000500094E
:1010DB0000020003000700030009000C00090009CF
:1010EB0000000000000000000000000000010000F4
:1010FB0000010001000000000003000100010003DB
:10110B0000010001000100010001000100010001CC
:10111B000080008500860088008E008F00C400C50B
:10112B0000C700C800CA00CB001F001C001F001E18
:10113B00001F001E001F001F001E001F001E001FAF
:10114B0000000006000700080009000A000B000C55
:0C115B0000040005000200030000000179
:101345005800300000000000030002000100060004
:0B135500010002000900090001000473
:100E8C00121361A290E4FF33900048CFF0A3EFF06F
:100E9C00A293E4FF3390004CCFF0A3EFF0E490006A
:100EAC002EF0A3F0A290E433FF900048E07003A36F
:100EBC00E06F604190002EE0FEA3E0FFD3940BEEB8
:100ECC006480948040067E007F008007EF2401FF41
:100EDC00E43EFE90002EEEF0A3EFF0A293E4FF337D
:100EEC0090004CCFF0A3EFF0A290E4FF33900048B9
:100EFC00CFF0A3EFF090002EE0FEA3E0FF4E7003C6
:100F0C00021030A293E433FD90004CE07003A3E098
:100F1C006D7003020FF6EF25E0FFEE33FE744B2FDE
:100F2C00F58274113EF583E493FC740193FD25E086
:100F3C00FFEC33FE74D32FF58274103EF583E493EB
:100F4C00FA740193FB74302FF58274003EF583E044
:100F5C00FEA3E0B50320EEB5021CED25E0FFEC335B
:100F6C00FE74EB2FF58274103EF583E493FE74014E
:100F7C0093AC06FD803790002FE025E0FF90002E0B
:100F8C00E033FE744B2FF58274113EF5837401939C
:100F9C0025E0FFE49333FE74302FF58274003EF5A8
:100FAC0083E0FEA3E02401FFE43EFCAD0790002F9C
:100FBC00E025E0FF90002EE033FE744B2FF5827499
:100FCC00113EF58374019325E0FFE49333FE7430F6
:100FDC002FF58274003EF583ECF0A3EDF0A293E4C0
:100FEC00FF3390004CCFF0A3EFF090002FE024FFE4
:100FFC00FD90002EE034FFFC7F017E00120B657F1C
:10100C00FA7E001212DF90002FE024FFFD90002EDC
:10101C00E034FFFCE4FFFE120B657FFA7E00121237
:0F102C00DF020EB0E4FDFCFFFE120B65020EB0FA
:0E0B6500900000EEF0A3EFF0A3ECF0A3EDF093
:100B73007F807E0012137D90003CE0FEA3E0901086
:100B83009775F003121194EE75F003A42583F58392
:100B9300E493FB740193FA740293F912129D7BFFA1
:100BA3007A10798712129D90000974FFF0A37410D4
:100BB300F0A3748AF090003EE0FFA3E090000CCF16
:100BC300F0A3EFF07B017A00794A120865E4900004
:100BD3004BF07B017A00794A12129D90000974FF51
:100BE300F0A37410F0A3748AF0900040E0FFA3E038
:100BF30090000CCFF0A3EFF07B017A00794A120842
:100C030065E490004BF07B017A00794A12129D7BD8
:100C1300FF7A10798D12129D900042E0FEA3E090BE
:100C230010AC75F003121194EE75F003A42583F54F
:100C330083E493FB740193FA740293F912129D7B7C
:100C4300FF7A10798F12129D90000974FFF0A3743C
:100C530010F0A3748AF0900044E0FFA3E090000C2E
:100C6300CFF0A3EFF07B017A00794A120865E49094
:100C7300004BF07B017A00794A12129D90000974AF
:100C8300FFF0A37410F0A3748AF0900046E0FFA372
:100C9300E090000CCFF0A3EFF07B017A00794A12C9
:100CA3000865E490004BF07B017A00794A12129DAB
:100CB3007FC07E0012137D7BFF7A10799312129D01
:100CC30090000974FFF0A37410F0A3748AF09000ED
:100CD30038E0FFA3E090000CCFF0A3EFF07B017AA4
:100CE30000794A120865E490004BF07B017A0079A1
:100CF3004A12129D90000974FFF0A37410F0A374BC
:100D03008AF090003AE0FFA3E090000CCFF0A3EF4D
:100D1300F07B017A00794A120865E490004BF07B7E
:100D2300017A00794A12129D7BFF7A107998121288
:100D33009D90000974FFF0A37410F0A3748AF090DF
:100D43000034E0FFA3E090000CCFF0A3EFF07B01B1
:100D53007A00794A120865E490004BF07B017A002F
:100D6300794A12129D90000974FFF0A37410F0A346
:100D7300748AF0900036E0FFA3E090000CCFF0A35C
:100D8300EFF07B017A00794A120865E490004BF09A
:100D93007B017A00794A12129D7BFF7A10799812AF
:100DA300129D90000974FFF0A37410F0A3748AF0ED
:100DB300900030E0FFA3E090000CCFF0A3EFF07BB6
:100DC300017A00794A120865E490004BF07B017ABE
:100DD30000794A12129D90000974FFF0A37410F079
:100DE300A3748AF0900032E0FFA3E090000CCFF0F0
:100DF300A3EFF07B017A00794A120865E490004B77
:100E0300F07B017A00794A12129D900000E0700491
:100E1300A3E064017072900003E025E0FF900002FC
:100E2300E033FE741B2FF58274113EF583E493FEC9
:100E3300740193FF12137DE4900004F0A3F090007B
:100E430003E025E0FF900002E033FE74032FF582F8
:100E530074113EF583E493FE740193FFC390000580
:100E6300E09FEE6480F8900004E064809850197B62
:100E7300FF7A10798D12129D900005E004F0700640
:080E8300900004E004F080B6C9
:010E8B002244
:101361007F387E0012137D7F0C7E0012137D7F017A
:0C1371007E0012137D7F067E0002137DBB
:10137D008FA05380FE5380FD4380047F017E0012B9
:0C138D0012DF5380FB7F017E000212DFA4
:101399008FA04380015380FD4380047F017E0012AA
:0C13A90012DF5380FB7F027E000212DF87
:0B129D00900006EBF0A3EAF0A3E9F0DC
:1012A800E4A3F0A3F0900006E0FBA3E0FAA3E0F9C2
:1012B800A3E0FEA3E0F5828E83121167FF60173367
:1012C80095E0FE12139990000AE004F070D79000A0
:0612D80009E004F080CFE4
:0112DE0022ED
:1012DF00E4FDFCC3ED9FEE6480F8EC648098502E23
:1012EF00E490000BF0A3F090000BF0A3F090000C33
:1012FF00E004F0700690000BE004F090000BE0703B
:07130F0004A3E064F570E6A1
:071316000DBD00010C80C5B4
:01131D0022AD
:03000000021211D8
:0C121100787FE4F6D8FD758121021258A8
:10116700BB010CE58229F582E5833AF583E022503D
:1011770006E92582F8E622BBFE06E92582F8E22287
:0D118700E58229F582E5833AF583E49322A1
:0C119400A42582F582E5F03583F5832266
:10080000E5082409F582E43400F583E00508229028
:100810000006300703900009E475F0011211CB02C5
:1008200011A02000E97F2ED2008018EF540F2490F1
:10083000D43440D4FF30040BEF24BFB41A0050036B
:100840002461FFE50960021509050CE50C7002053D
:100850000B30070E900006E475F0011211CBEF0289
:1008600011B902131E7403D2078003E4C207F5080E
:100870009000061211E2E4F509F50BF50CE50960AC
:10088000077F2012084380F5750AFFC201C200C22B
:1008900002C203C205C206C20812080FFF700D3063
:1008A00007057F00120854AF0CAE0B22B4255FC2BF
:1008B000D5C20412080FFF24D0B40A00501A75F0F4
:1008C0000A780930D50508B6FF0106C6A426F62029
:1008D000D5047002D20380D924CFB41A00EF50049B
:1008E000C2E5D204020A55D20180C6D20080C0D22D
:1008F0000280BCD2D580BAD20580B47F20120843D2
:100900002002077401B5090040F1120800FF120827
:100910004302087DD208D2068095120800FB120817
:1009200000FA120800F94A4B700679267A0B7BFF11
:1009300020022EE509602A7E008E82758300121146
:100940006760060EEE650A70F0C2D5EBC0E0EAC043
:10095000E0E9C0E0EE120A9CD0E0F9D0E0FAD0E085
:10096000FB1211A0FF60AAEBC0E0EAC0E0E9C0E022
:10097000120843D0E02401F9D0E03400FAD0E0FBC3
:10098000E50A0460DCD50AD980877BFF7A0A79986A
:10099000D202809C791080027908C206C2088008C1
:1009A000D2D5790A8004790AC2D5E50A047002F525
:1009B0000AE4FAFDFEFF120800FC7B082001131276
:1009C0000800FD7B1030000A120800FE120800FF2C
:1009D0007B20EC3382D592D55013C3E43000069FC0
:1009E000FFE49EFEE42001039DFDE49CFCE4CBF8C3
:1009F000C201EC700CCFCECDCCE824F8F870F380B7
:100A000017C3EF33FFEE33FEED33FDEC33FCEB3376
:100A1000FB994002FB0FD8E9EB300105F8D0E0C4A8
:100A200048B201C0E00AEC4D4E4F78207B0070C206
:100A3000EAB50A0040BCC0E0120A9ED0F0D0E02027
:100A40000104C4C0E0C4B201C0F012082CD0F0D53B
:100A5000F0EB02087D1211EB091A5309945808EBC8
:100A60004C08E74209984F09A04409A049090043EE
:080A700009A655098A46098A0E
:100A780045098A470B465008EF2D08F32E09162B17
:100A880008F7230914200B2F2A08AF480000090E85
:100A98003F3F3F00790AA2D5200314300509B91059
:100AA800020404B9080104A2D5200602500104205A
:100AB80002689202B509005034C0E07F2030031963
:100AC8007F30A20272067205500F120AF5C202C2E6
:100AD80006C205C2087F30800F300503E9C0E01266
:100AE8000843300503D0E0F9D0E0B509CC3005174C
:100AF8007F30B9100C1208437F583004077F788084
:100B080003B908031208433002057F2D0208437F0A
:100B1800202008F87F2B2006F322920280CF286E2F
:100B2800756C6C2900D2011208003001F8C20178F6
:100B38000930D50108F60208AF2D5043495812086C
:100B4800002403B405004001E4900B4193120834DB
:0D0B5800743A120834D2037509040209949E
:10121D00020E8CE493A3F8E493A34003F68001F24D
:10122D0008DFF48029E493A3F85407240CC8C333D2
:10123D00C4540F4420C8834004F456800146F6DFA1
:10124D00E4800B0102040810204080901345E47ED9
:10125D00019360BCA3FF543F30E509541FFEE49396
:10126D00A360010ECF54C025E060A840B8E493A35D
:10127D00FAE493A3F8E493A3C8C582C8CAC583CA88
:10128D00F0A3C8C582C8CAC583CADFE9DEE780BE40
:01136000008C
:1011A000BB010689828A83E0225002E722BBFE024D
:0911B000E32289828A83E4932280
:1011B900BB010689828A83F0225002F722BBFE0115
:0211C900F3220F
:1011CB00F8E0FBA3A3E0F925F0F0E58215827002AD
:0711DB001583E0FA38F02251
:0911E200EBF0A3EAF0A3E9F0220E
:1011EB00D083D082F8E4937012740193700DA3A393
:1011FB0093F8740193F5828883E4737402936860A7
:06120B00EFA3A3A380DFA6
:10131E00EFB40A07740D121329740A309811A899A4
:10132E00B8130CC2983098FDA899C298B811F6302F
:07133E0099FDC299F5992207
:00000001FF
