:03000000020500F6
:10002300209817C3E875F01095F05013E89005A1D8
:100033000893A2D0929BF5998005E599120587C292
:0400430099C2983294
:100500007800B198B198B13BB198B198B198758D18
:10051000CC758920D2AFD2AC7598C0D29CD28E75E2
:1005200090FFE590540FF5F0E590540F62F0AFF0B6
:10053000BF0004F5F080F1D29980FE75A038C2802A
:10054000C281D282B198C282B19875A00CC280C219
:1005500081D282B198C282B19875A001C280C28155
:10056000D282B198C282B19875A006C280C281D2EF
:1005700082B198C282B19822F5A0C280C281D28293
:10058000B198C282B19822F5A0D280C281D282B144
:1005900098C282B198B198227A0179FFD9FEDAFA2D
:1005A00022416C616E6B61722053204B6F747761D6
:0205B0006C00DD
:00000001FF
