:10119B00E4FDFCC3ED9FEE6480F8EC648098501E78
:1011AB00E4F52CF52DF52CF52D052DE52D7002050F
:0711BB002C64F5452C70F2D5
:0711C2000DBD00010C80D5FA
:0111C9002203
:101278007F387E001212947F0C7E001212947F0138
:0C1288007E001212947F067E0002129479
:101294008FA05380FE5380FD4380047F017E0012A3
:0C12A400119B5380FB7F017E0002119B18
:1012B0008FA04380015380FD4380047F017E001294
:0C12C000119B5380FB7F027E0002119BFB
:0611CA008B278A28892909
:1011D000E4F52AF52BAB27AA28A929852B82852A95
:1011E00083120B5CFF60113395E0FE1212B0052BE9
:0811F000E52B70E1052A80DD0A
:0111F80022D4
:1011F9001212787B007A00793B1212257B007A0063
:10120900793B120D3075900F7B007A00793B120EF5
:0C121900DB7B007A00793B120D3080EC8A
:10103A004D4F4E00545545005745440054485500FD
:10104A00465249005341540053554E004A414E00FE
:10105A00464542004D415200415052004D4159000F
:10106A004A554E004A554C004155470053455000D9
:10107A004F4354004E4F5600444543002C20002550
:10108A0078002000203230003A000059005900232D
:10109A0000070024000C0099000000000000000175
:1010AA00000100010000001F001C001F001E001F9D
:1010BA00001E001F001F001E001F001E001FFF1041
:1010CA003AFF103EFF1042FF1046FF104AFF104E33
:1010DA00FF1052FF1056FF105AFF105EFF1062FFFA
:1010EA001066FF106AFF106EFF1072FF1076FF1075
:1010FA007AFF107EFF10820005080C44474A03025B
:05110A000304020202D3
:1012CC000E0B00150015001400040024000500543A
:1012250090000474FFF5F0120C41900006E4F5F00F
:10123500120C41A293E4FF33CF8FF0120C22A2923D
:0C124500E4FF33900002CF8FF0020C4158
:060D30008B228A238924B6
:100D36007F807E001212949010C575F003E51212A2
:100D46000C6EE51175F003A42583F583E493FB741B
:100D56000193FA740293F91211CA7BFF7A1079860D
:100D66001211CA752AFF752B10752C8985132D85CE
:100D7600142E7B007A00790812085CE4F50AFB7AE7
:100D86000079081211CA7BFF7A10798C1211CA9069
:100D960010DA75F003E516120C6EE51575F003A46E
:100DA6002583F583E493FB740193FA740293F91295
:100DB60011CA7BFF7A10798E1211CA752AFF752B1C
:100DC60010752C8985172D85182E7B007A007908D9
:100DD60012085CE4F50AFB7A0079081211CA7FC48E
:100DE6007E00121294752AFF752B10752C89850FBB
:100DF6002D85102E7B007A00790812085CE4F50A2E
:100E0600FB7A0079081211CA7BFF7A1079921211C7
:100E1600CA752AFF752B10752C89850D2D850E2E0A
:100E26007B007A00790812085CE4F50AFB7A0079FF
:100E3600081211CA7BFF7A1079921211CA752AFF1D
:100E4600752B10752C89850B2D850C2E7B007A0051
:100E5600790812085CE4F50AFB7A0079081211CACF
:100E6600AB22AA23A924900004120BEAFFAEF0F4E9
:100E76007002EEF4605E900006120BEA640145F023
:100E8600705274012FF58274113EF583E493248029
:100E9600FFE433FE121294E4F525F526AB22AA23CD
:100EA600A924900004120BEA2408F582741135F087
:100EB600F583E493FFC3E5269F7480F86525985073
:100EC600137BFF7A10798C1211CA0526E52670026B
:040ED600052580C8A6
:010EDA0022F5
:060EDB008B228A2389240A
:100EE100120BBFFFA293E4336F7002E5F0603890FC
:100EF1000004120BEA2401FFE435F0FED3EF94065F
:100F0100EE6480948040067EFF7FFF8000AB22AAC2
:100F110023A924900004EE8FF0120C41A293E4FF68
:100F210033CF8FF0120C22AB22AA23A92490000602
:100F3100120BEAFFC374019FFFE495F09000068F46
:100F4100F0120C41E4F525F526AB22AA23A9249041
:100F51000002120BEAFFA292E4336F7002E5F07017
:100F610003021028900004120BEA640445F0606348
:100F7100900004120BEAFDACF025E0FFEC33FE74A7
:100F8100942FF58274103EF583E493FA740193FB78
:100F9100A905E925E0240BF8E6FC08E62401FDE4B7
:100FA1003CFCC3EB9DEC6480F8EA648098501374B8
:100FB100A22FF58274103EF583E493FE740193FF32
:100FC1008004AE04AF05E925E0240BF8A60608A6C7
:100FD100078040E51664024515601CE51625E0FF13
:100FE100E51533FE74B02FF58274103EF583E4935A
:100FF100FE740193FF8018AE17AF187C007D0412B8
:101001000B89ED4C7005FE7F1D80047E007F1C8ED8
:10101100138F14A292E4FF33AB22AA23A9249000D8
:1010210002CF8FF0020C410526E5267002052564EA
:08103100F545256003020F4A9A
:011039002294
:0300000002110FDB
:0C110F00787FE4F6D8FD7581420211568D
:100B5C00BB010CE58229F582E5833AF583E022504E
:100B6C0006E92582F8E622BBFE06E92582F8E22298
:0D0B7C00E58229F582E5833AF583E49322B2
:100B8900C2D5EC30E709B2D5E4C39DFDE49CFCEE87
:100B990030E715B2D5E4C39FFFE49EFE120CA5C34E
:100BA900E49DFDE49CFC8003120CA530D507C3E449
:060BB9009FFFE49EFE22F6
:100BBF00BB010A89828A83E0F5F0A3E02250068701
:100BCF00F009E71922BBFE07E3F5F009E3192289C3
:0B0BDF00828A83E493F5F074019322F6
:100BEA00BB0110E58229F582E5833AF583E0F5F049
:100BFA00A3E0225009E92582F886F008E622BBFE26
:100C0A000AE92582F8E2F5F008E222E5832AF5836B
:080C1A00E993F5F0A3E9932230
:100C2200BB010A89828A83F0E5F0A3F0225006F71D
:0F0C320009A7F01922BBFE06F3E5F009F319221A
:100C4100F8BB0111E58229F582E5833AF583E8F0E5
:100C5100E5F0A3F0225009E92582C8F608A6F022A2
:0D0C6100BBFE09E92582C8F2E5F008F22289
:0C0C6E00A42582F582E5F03583F5832291
:10080000E536242AF8E60536227827300702782ACA
:10081000E475F001120CFA020C7A2000EB7F2ED264
:10082000008018EF540F2490D43440D4FF30040BD0
:10083000EF24BFB41A0050032461FFE537600215AE
:1008400037053AE53A7002053930070D7827E47527
:10085000F001120CFAEF020C930212517403D2074A
:100860008003E4C207F5368B278A288929E4F53707
:10087000F539F53AE53760077F2012083B80F575BA
:1008800038FFC201C200C202C203C205C206C208CA
:10089000120809FF700D3007057F0012084CAF3AAF
:1008A000AE3922B4255FC2D5C204120809FF24D094
:1008B000B40A00501A75F00A783730D50508B6FF2B
:1008C0000106C6A426F620D5047002D20380D924DE
:1008D000CFB41A00EF5004C2E5D204020A4CD20190
:1008E00080C6D20080C0D20280BCD2D580BAD205E8
:1008F00080B47F2012083B2002077401B537004006
:10090000F1120800FF12083B020874D208D20680D8
:1009100095120800FB120800FA120800F94A4B7001
:1009200006791D7A0B7BFF20022EE537602A7E00B8
:100930008E82758300120B5C60060EEE653870F0D7
:10094000C2D5EBC0E0EAC0E0E9C0E0EE120A93D005
:10095000E0F9D0E0FAD0E0FB120C7AFF60AAEBC01D
:10096000E0EAC0E0E9C0E012083BD0E02401F9D0A1
:10097000E03400FAD0E0FBE5380460DCD538D980FB
:10098000877BFF7A0A798FD202809C791080027966
:1009900008C206C2088008D2D5790A8004790AC242
:1009A000D5E538047002F538E4FAFDFEFF120800C0
:1009B000FC7B08200113120800FD7B1030000A1296
:1009C0000800FE120800FF7B20EC3382D592D55040
:1009D00013C3E43000069FFFE49EFEE42001039D64
:1009E000FDE49CFCE4CBF8C201EC700CCFCECDCC86
:1009F000E824F8F870F38017C3EF33FFEE33FEED11
:100A000033FDEC33FCEB33FB994002FB0FD8E9EBF1
:100A1000300105F8D0E0C448B201C0E00AEC4D4E08
:100A20004F78207B0070C2EAB5380040BCC0E012AD
:100A30000A95D0F0D0E0200104C4C0E0C4B201C0E7
:100A4000F0120824D0F0D5F0EB020874120D0A0958
:100A50001153098B5808E24C08DE42098F4F099761
:0F0A60004409974908F743099D550981460981C3
:100A6F00450981470B3D5008E62D08EA2E090D2B4D
:100A7F0008EE23090B200B262A08A64800000905BB
:100A8F003F3F3F00790AA2D5200314300509B91062
:100A9F00020404B9080104A2D52006025001042063
:100AAF0002689202B537005034C0E07F203003193E
:100ABF007F30A20272067205500F120AECC202C2F8
:100ACF0006C205C2087F30800F300503E9C0E0126F
:100ADF00083B300503D0E0F9D0E0B537CC3005172F
:100AEF007F30B9100C12083B7F583004077F788095
:100AFF0003B9080312083B3002057F2D02083B7F24
:100B0F00202008F87F2B2006F322920280CF286E38
:100B1F00756C6C2900D2011208003001F8C20178FF
:100B2F003730D50108F60208A62D50434958120850
:100B3F00002403B405004001E4900B389312082CF5
:0D0B4F00743A12082CD20375370402098B8A
:10111B000211F9E493A3F8E493A34003F68001F2E0
:10112B0008DFF48029E493A3F85407240CC8C333D5
:10113B00C4540F4420C8834004F456800146F6DFA4
:10114B00E4800B01020408102040809012CCE47E56
:10115B00019360BCA3FF543F30E509541FFEE49399
:10116B00A360010ECF54C025E060A840B8E493A360
:10117B00FAE493A3F8E493A3C8C582C8CAC583CA8B
:10118B00F0A3C8C582C8CAC583CADFE9DEE780BE43
:0112DC000011
:100C7A00BB010689828A83E0225002E722BBFE0278
:090C8A00E32289828A83E49322AB
:100C9300BB010689828A83F0225002F722BBFE0140
:020CA300F3223A
:100CA500BC000BBE0029EF8DF084FFADF022E4CC33
:100CB500F875F008EF2FFFEE33FEEC33FCEE9DECFC
:100CC500984005FCEE9DFE0FD5F0E9E4CEFD22ED42
:100CD500F8F5F0EE8420D21CFEADF075F008EF2F8C
:100CE500FFED33FD4007985006D5F0F222C398FD7D
:050CF5000FD5F0EA221A
:100CFA00FAE6FB0808E6F925F0F618E6CA3AF622FB
:100D0A00D083D082F8E4937012740193700DA3A378
:100D1A0093F8740193F5828883E47374029368608C
:060D2A00EFA3A3A380DF8C
:10125100EFB40A07740D12125C740A309811A89940
:10126100B8130CC2983098FDA899C298B811F630FD
:0712710099FDC299F59922D5
:00000001FF
