:03000000020100FA
:04000B0012013C3270
:100100007581C07590FFD2AFD2A9758901758CF841
:10011000758A2FD28CA2909218A293921F7D01789B
:1001200007758000752100752200D283C282C280CB
:10013000C281D213C212C210C21180FEDD02800B36
:10014000758CF8758A2FD28C020208A293920FA2A6
:10015000909208E5216523F521A293921FA2909227
:100160001830080618B8FF027800300F0608B80FDC
:1001700002780EC3E875F00795F07015D283C2823D
:10018000C280C281D213C212C210C2117D0102010B
:1001900040403C30130AD280D210C283C213802563
:1001A00030120AD281D211C282C212801830100AD3
:1001B000D282D212C280C210800B301108D283D2F8
:1001C00013C281C211740F88F095F0FD0201403016
:1001D000130AD281D211C283C213802530120AD2EF
:1001E00080D210C282C212801830100AD283D21379
:1001F000C280C210800B301108D282D212C281C2DA
:09020000118500050D02014022E8
:00000001FF
