:03000000020200F9
:10020000711D711D51AC711D711D711D781076AE7F
:100210000876F008763C0876EF0876A70876F108AD
:1002200076360876010875A0007590007581C07D4E
:10023000507126DDFCE5907D507126DDFC8590F047
:1002400095F070EB748051E9711DE5F0C454F0F93C
:100250007D04E7C00112034F120361D00109DDF2F2
:1002600074C051E9711D7D04E7C00112034F1203F0
:1002700061D00109DDF27D507126DDFC748051E909
:10028000711D7D04E7C00112034F120361D0010903
:10029000DDF274C051E9711D7D04E7C00112034F06
:1002A000120361D00109DDF2808580FE75A038C29D
:1002B00080C281D282711DC282711D75A00CC28064
:1002C000C281D282711DC282711D75A001C280C21D
:1002D00081D282711DC282711D75A006C280C28149
:1002E000D282711DC282711D22F5A0C280C281D24C
:1002F00082711DC282711D22F5A0D280C281D2827C
:10030000711DC282711D711D22E493600551F8A315
:0D03100080F722E4E6600551F80880F7222E
:10031D007E017FFFDFFEDEFA227EFF7FFF7FFFDFA4
:10032D00FEDEFA22F953010F54F0C4FA7802740973
:10033D00C396E64004243080022437F6D8F0EA89CB
:10034D00F02271317880F608A6F008760018187141
:10035D0013711D229003997109711D2275A001C29F
:10036D0080C281D282711DC2824142505357203DBD
:10037D00200052303132203D2000205233343520C0
:0E038D003D20005236375350203D2000200006
:00000001FF
