:100000000C942A000C9434000C9434000C943400AA
:100010000C9434000C9434000C9434000C9447007D
:100020000C9434000C9434000C9434000C94340080
:100030000C9434000C9434000C9434000C94340070
:100040000C9434000C9434000C9434000C94340060
:100050000C94340011241FBECFE5D8E0DEBFCDBF25
:100060000E9436000C9453000C940000789489B7D9
:10007000806189BF80E281BB8FB580648FBD89E0DC
:100080009DE39BBD8ABD8EB583608EBDFFCF1F9261
:100090000F920FB60F9211241DBC1CBC0F900FBE07
:0A00A0000F901F901895F894FFCF01
:00000001FF
