:100000000C942A000C943F000C943F000C943F0089
:100010000C943F000C943F000C943F000C943F0064
:100020000C943F000C943F000C943F000C943F0054
:100030000C943F000C943F000C943F000C943F0044
:100040000C943F000C943F000C943F000C943F0034
:100050000C943F0011241FBECFE5D8E0DEBFCDBF1A
:1000600010E0A0E6B0E0E2EEF1E002C005900D92F3
:10007000A836B107D9F70E94CC000C94EF000C947D
:10008000000017BA979A82B3887F82BBC79B08C0CB
:10009000959A0000000082B3807C82BBC799F8CF9C
:1000A0008FEF87BB0895959A0000000082B3807C93
:1000B00082BB0895DF93CF930F92CDB7DEB78983CC
:1000C0000E944100898188BB82B38B7782BB959A5D
:1000D0000000000082B3807C82BB18BA0F90CF91E1
:1000E000DF910895DF93CF930F92CDB7DEB7898369
:1000F0000E944100898188BB9798929A959A000046
:10010000000082B3807C82BB18BA0F90CF91DF9140
:100110000895CF93DF93EC018881181634F421966B
:100120000E94720089911816DCF3DF91CF91089537
:100130008158E62FF0E0ED59FF4F9081890F0E9422
:100140005A00089581B3846A81BB85EA9EE00197D5
:10015000F1F700C0000081E00E945A0083EF91E0B7
:100160000197F1F700C000008CE00E945A0083EF75
:1001700091E00197F1F700C0000088E30E945A0067
:1001800090E19A95F1F700C08EE00E945A0080E15C
:100190008A95F1F700C00895CF93DF930E94A200E3
:1001A000C1E0D0E09E012150822F63E00E949800C0
:1001B00080E690E00E9489008C2F63E00E94980006
:1001C00082E690E00E94890021968FE39DE0A3E003
:1001D00081509040A040E1F700C00000E3CFF894C8
:0201E000FFCF4F
:0801E2002000780000401454D5
:00000001FF
