:100000000C942A000C943F000C943F000C943F0089
:100010000C943F000C943F000C943F000C943F0064
:100020000C943F000C943F000C943F000C943F0054
:100030000C943F000C943F000C943F000C943F0044
:100040000C943F000C943F000C943F000C943F0034
:100050000C943F0011241FBECFE5D8E0DEBFCDBF1A
:1000600010E0A0E6B0E0E6EDF1E002C005900D92F0
:10007000A436B107D9F70E94E4000C94E9000C946F
:10008000000017BA979A82B3887F82BBC79B08C0CB
:10009000959A0000000082B3807C82BBC799F8CF9C
:1000A0008FEF87BB0895959A0000000082B3807C93
:1000B00082BB0895CF93DF931F92CDB7DEB78983BC
:1000C0000E944100898188BB82B38B7782BB959A5D
:1000D0000000000082B3807C82BB18BA0F90DF91D1
:1000E000CF910895CF93DF931F92CDB7DEB7898369
:1000F0000E944100898188BB9798929A959A000046
:10010000000082B3807C82BB18BA0F90DF91CF9140
:100110000895CF93DF93EC018881181634F421966B
:100120000E94720089911816DCF3DF91CF91089537
:100130008158E62FF0E0E15AFF4F9081890F0C942F
:100140005A0081B3846A81BB85EA9EE00197F1F78A
:1001500000C0000081E00E945A0083EF91E0019707
:10016000F1F700C0000088E30E945A0090E19A95E0
:10017000F1F700C08CE00E945A0080E18A95F1F707
:1001800000C0089580E40E945A0080E00E9472003E
:1001900080E00E94720080E00E94720080E00E9475
:1001A000720080E00E94720080E00E94720080E095
:1001B0000E94720080E00E94720061E081E00E9473
:1001C000980080E00C9472000E94A1000E94C2007E
:0601D000FFCFF894FFCF01
:0401D600004014547D
:00000001FF
