:10109D004E6F74653D002578002C20443D004F6354
:0910AD00743D002C2048503D0068
:100F30005800540F3C0E610D940CCF0C180B6D0A29
:100F4000C50A280998090F088D08126024002A0094
:100F5000C800640064006400C80064006400C80045
:100F60006400C80064006400C80064006400640099
:100F7000C80000602400000000000200040005001A
:100F8000070009000B001000400010000B000900D2
:100F900007000500040002000000004200240000D9
:100B6500E4F5A07F02FE120FE31210497F037E0019
:100B7500120FE37F807E001210657F017E00020D5B
:100B850061900025E025E0FF900024E033FE742A03
:100B95002FF58274003EF583E0FEA3E0FF90004E42
:100BA500EEF0A3EFF04E7003020D67900025E025EF
:100BB500E0FF900024E033FE74002FF58274003EC0
:100BC500F583E0FFA3E0900028CFF0A3EFF09000BD
:100BD50028A3E0FB54F0FF900026E4F0A3EFF0908B
:100BE5000026E0FEA3E0FF7C007D10120DA890001A
:100BF50026EEF0FCA3EFF0FDEB540FFF900050E460
:100C0500F0A3EFF0E025E0FF900050E033FE7454D0
:100C15002FF58274003EF583E0FFA3E0900052CFEC
:100C2500F0A3EFF0EC702AED24FE601C0470229016
:100C35000052E0FEA3E0FF7C007D02120DA89000AB
:100C450052EEF0A3EFF08009900052E4F0A374FF98
:100C5500F07BFF7A10799D120FA190007474FFF05C
:100C6500A37410F0A374A3F0900028E0FFA3E09014
:100C75000077CFF0A3EFF07B017A00796C1208655D
:100C85007B017A00796C120FA17BFF7A1079A6128D
:100C95000FA190007474FFF0A37410F0A374A3F077
:100CA50090004EE0FFA3E0900077CFF0A3EFF07B3C
:100CB500017A00796C1208657B017A00796C120F54
:100CC500A17FC07E001210657BFF7A1079AB120FF1
:100CD500A190007474FFF0A37410F0A374A3F090B6
:100CE5000026E0FFA3E0900077CFF0A3EFF07B01B3
:100CF5007A00796C1208657B017A00796C120FA174
:100D05007BFF7A1079B0120FA190007474FFF0A3E5
:100D15007410F0A374A3F0900052E0FFA3E09000DC
:100D250077CFF0A3EFF07B017A00796C1208657B31
:100D3500017A00796C120FA1900025E004F070068D
:100D4500900024E004F07F807E0012106590004E34
:100D5500E0FEA3E0FF7C007D05120D96120FE30275
:040D65000B8680FE7B
:101049007F387E001210657F0C7E001210657F01CB
:0C1059007E001210657F067E000210650C
:101065008FA05380FE5380FD4380047F017E0012D4
:0C1075000FE35380FB7F017E00020FE3BD
:101081008FA04380015380FD4380047F017E0012C5
:0C1091000FE35380FB7F027E00020FE3A0
:0B0FA100900071EBF0A3EAF0A3E9F070
:100FAC00E4A3F0A3F0900071E0FBA3E0FAA3E0F956
:100FBC00A3E0FEA3E0F5828E83120D69FF60173368
:100FCC0095E0FE121081900075E004F070D790004F
:060FDC0074E004F080CF78
:010FE20022EC
:100FE300E4FDFCC3ED9FEE6480F8EC648098502E22
:100FF300E4900076F0A3F0900076F0A3F0900077F1
:10100300E004F07006900076E004F0900076E07063
:0710130004A3E064F570E6A0
:07101A000DBD00010C80C5B3
:0110210022AC
:03000000020EA449
:0C0EA400787FE4F6D8FD758121020EEB8A
:100D6900BB010CE58229F582E5833AF583E022503F
:100D790006E92582F8E622BBFE06E92582F8E22289
:0D0D8900E58229F582E5833AF583E49322A3
:100D9600EF8DF0A4A8F0CF8CF0A428CE8DF0A42E71
:020DA600FE222B
:100DA800C2D5EC30E709B2D5E4C39DFDE49CFCEE66
:100DB80030E715B2D5E4C39FFFE49EFE120E09C3C7
:100DC800E49DFDE49CFC8003120E0930D507C3E4C2
:060DD8009FFFE49EFE22D5
:10080000E5082474F582E43400F583E005082290BD
:100810000071300703900074E475F001120E5E025F
:100820000DDE2000E97F2ED2008018EF540F2490B7
:10083000D43440D4FF30040BEF24BFB41A0050036B
:100840002461FFE50960021509050CE50C7002053D
:100850000B30070E900071E475F001120E5EEF028E
:100860000DF70210227403D2078003E4C207F508D3
:10087000900071120E75E4F509F50BF50CE50960B1
:10088000077F2012084380F5750AFFC201C200C22B
:1008900002C203C205C206C20812080FFF700D3063
:1008A00007057F00120854AF0CAE0B22B4255FC2BF
:1008B000D5C20412080FFF24D0B40A00501A75F0F4
:1008C0000A780930D50508B6FF0106C6A426F62029
:1008D000D5047002D20380D924CFB41A00EF50049B
:1008E000C2E5D204020A55D20180C6D20080C0D22D
:1008F0000280BCD2D580BAD20580B47F20120843D2
:100900002002077401B5090040F1120800FF120827
:100910004302087DD208D2068095120800FB120817
:1009200000FA120800F94A4B700679267A0B7BFF11
:1009300020022EE509602A7E008E82758300120D4A
:100940006960060EEE650A70F0C2D5EBC0E0EAC041
:10095000E0E9C0E0EE120A9CD0E0F9D0E0FAD0E085
:10096000FB120DDEFF60AAEBC0E0EAC0E0E9C0E0E8
:10097000120843D0E02401F9D0E03400FAD0E0FBC3
:10098000E50A0460DCD50AD980877BFF7A0A79986A
:10099000D202809C791080027908C206C2088008C1
:1009A000D2D5790A8004790AC2D5E50A047002F525
:1009B0000AE4FAFDFEFF120800FC7B082001131276
:1009C0000800FD7B1030000A120800FE120800FF2C
:1009D0007B20EC3382D592D55013C3E43000069FC0
:1009E000FFE49EFEE42001039DFDE49CFCE4CBF8C3
:1009F000C201EC700CCFCECDCCE824F8F870F380B7
:100A000017C3EF33FFEE33FEED33FDEC33FCEB3376
:100A1000FB994002FB0FD8E9EB300105F8D0E0C4A8
:100A200048B201C0E00AEC4D4E4F78207B0070C206
:100A3000EAB50A0040BCC0E0120A9ED0F0D0E02027
:100A40000104C4C0E0C4B201C0F012082CD0F0D53B
:100A5000F0EB02087D120E7E091A5309945808EB38
:100A60004C08E74209984F09A04409A049090043EE
:080A700009A655098A46098A0E
:100A780045098A470B465008EF2D08F32E09162B17
:100A880008F7230914200B2F2A08AF480000090E85
:100A98003F3F3F00790AA2D5200314300509B91059
:100AA800020404B9080104A2D5200602500104205A
:100AB80002689202B509005034C0E07F2030031963
:100AC8007F30A20272067205500F120AF5C202C2E6
:100AD80006C205C2087F30800F300503E9C0E01266
:100AE8000843300503D0E0F9D0E0B509CC3005174C
:100AF8007F30B9100C1208437F583004077F788084
:100B080003B908031208433002057F2D0208437F0A
:100B1800202008F87F2B2006F322920280CF286E2F
:100B2800756C6C2900D2011208003001F8C20178F6
:100B38000930D50108F60208AF2D5043495812086C
:100B4800002403B405004001E4900B4193120834DB
:0D0B5800743A120834D2037509040209949E
:100EB000020B65E493A3F8E493A34003F68001F2E8
:100EC00008DFF48029E493A3F85407240CC8C33343
:100ED000C4540F4420C8834004F456800146F6DF12
:100EE000E4800B0102040810204080900F30E47E63
:100EF000019360BCA3FF543F30E509541FFEE49307
:100F0000A360010ECF54C025E060A840B8E493A3CD
:100F1000FAE493A3F8E493A3C8C582C8CAC583CAF8
:100F2000F0A3C8C582C8CAC583CADFE9DEE780BEB0
:010FA0000050
:100DDE00BB010689828A83E0225002E722BBFE0213
:090DEE00E32289828A83E4932246
:100DF700BB010689828A83F0225002F722BBFE01DB
:020E0700F322D4
:100E0900BC000BBE0029EF8DF084FFADF022E4CCCD
:100E1900F875F008EF2FFFEE33FEEC33FCEE9DEC96
:100E2900984005FCEE9DFE0FD5F0E9E4CEFD22EDDC
:100E3900F8F5F0EE8420D21CFEADF075F008EF2F26
:100E4900FFED33FD4007985006D5F0F222C398FD17
:050E59000FD5F0EA22B4
:100E5E00F8E0FBA3A3E0F925F0F0E582158270021D
:070E6E001583E0FA38F022C1
:090E7500EBF0A3EAF0A3E9F0227E
:100E7E00D083D082F8E4937012740193700DA3A303
:100E8E0093F8740193F5828883E473740293686017
:060E9E00EFA3A3A380DF17
:10102200EFB40A07740D12102D740A309811A899A2
:10103200B8130CC2983098FDA899C298B811F6302E
:0710420099FDC299F5992206
:00000001FF
