:03000000020200F9
:1002000075A00075900051CC51CC515C51CC51CCB3
:1002100051CC788076200876200876200876200851
:10022000764108764C08764108764E08764B08767B
:100230004108765208762008762008762008762035
:100240000876207481519951CC90030051B951CC5A
:1002500074C0519951CC788051C380FE75A038C2CA
:1002600080C281D28251CCC28251CC75A00CC28096
:10027000C281D28251CCC28251CC75A001C280C24F
:1002800081D28251CCC28251CC75A006C280C2817B
:10029000D28251CCC28251CC22F5A0C280C281D27E
:1002A0008251CCC28251CC22F5A0D280C281D282AE
:1002B00051CCC28251CC51CC22E493600551A8A309
:1002C00080F722E6600551A80880F8227A0179FFBC
:0502D000D9FEDAFA225C
:0F030000454520333337202D204C6162203200D9
:00000001FF
